{
  "transactions": [
    {
      "hash": "0x13596a1cd9d4055ad61619fb6a7a6235899ad8f7f91720d0cc123d1b31d9fe05",
      "transactionType": "CREATE",
      "contractName": null,
      "contractAddress": "0x8b06c35631f18cc3452cf4a649ce5e007b142e4f",
      "function": null,
      "arguments": null,
      "transaction": {
        "from": "0x9304b52d0d68cce3fdacd14b81e7145dea59d42c",
        "gas": "0x119fae",
        "value": "0x0",
        "input": "0x608060405234801561001057600080fd5b5061001961001e565b6100d0565b7ff0c57e16840df040f15088dc2f81fe391c3923bec73e23a9662efc9c229c6a00805468010000000000000000900460ff161561006e5760405163f92ee8a960e01b815260040160405180910390fd5b80546001600160401b03908116146100cd5780546001600160401b0319166001600160401b0390811782556040519081527fc7f505b2f371ae2175ee4913f4499e1f2633a7b5936321eed1cdaeb6115181d29060200160405180910390a15b50565b610ea1806100df6000396000f3fe608060405234801561001057600080fd5b50600436106100f65760003560e01c806379ba50971161009257806379ba5097146101b757806379cc6790146101bf5780638da5cb5b146101d257806395d89b41146101e7578063a9059cbb146101ef578063c4d66de814610202578063dd62ed3e14610215578063e30c397814610228578063f2fde38b1461023057600080fd5b806306fdde03146100fb578063095ea7b31461011957806318160ddd1461013c57806323b872dd146101525780632ff2e9dc14610165578063313ce5671461017857806342966c681461018757806370a082311461019c578063715018a6146101af575b600080fd5b610103610243565b6040516101109190610b81565b60405180910390f35b61012c610127366004610beb565b6102e4565b6040519015158152602001610110565b6101446102fe565b604051908152602001610110565b61012c610160366004610c15565b610313565b6101446b19d971e4fe8401e74000000081565b60405160128152602001610110565b61019a610195366004610c51565b610337565b005b6101446101aa366004610c6a565b610344565b61019a61036f565b61019a610383565b61019a6101cd366004610beb565b6103c8565b6101da6103e1565b6040516101109190610c8c565b610103610416565b61012c6101fd366004610beb565b610433565b61019a610210366004610c6a565b610441565b610144610223366004610ca0565b6105af565b6101da6105eb565b61019a61023e366004610c6a565b6105f6565b6060600061024f610667565b905080600301805461026090610cd3565b80601f016020809104026020016040519081016040528092919081815260200182805461028c90610cd3565b80156102d95780601f106102ae576101008083540402835291602001916102d9565b820191906000526020600020905b8154815290600101906020018083116102bc57829003601f168201915b505050505091505090565b6000336102f281858561068b565b60019150505b92915050565b600080610309610667565b6002015492915050565b60003361032185828561069d565b61032c8585856106f0565b506001949350505050565b610341338261074f565b50565b60008061034f610667565b6001600160a01b0390931660009081526020939093525050604090205490565b610377610785565b61038160006107b7565b565b338061038d6105eb565b6001600160a01b0316146103bf578060405163118cdaa760e01b81526004016103b69190610c8c565b60405180910390fd5b610341816107b7565b6103d382338361069d565b6103dd828261074f565b5050565b6000807f9016d09d72d40fdae2fd8ceac6b6234c7706214fd39c1cd1e609a0528c1993005b546001600160a01b031692915050565b60606000610422610667565b905080600401805461026090610cd3565b6000336102f28185856106f0565b7ff0c57e16840df040f15088dc2f81fe391c3923bec73e23a9662efc9c229c6a008054600160401b810460ff16159067ffffffffffffffff166000811580156104875750825b905060008267ffffffffffffffff1660011480156104a45750303b155b9050811580156104b2575080155b156104d05760405163f92ee8a960e01b815260040160405180910390fd5b845467ffffffffffffffff1916600117855583156104fa57845460ff60401b1916600160401b1785555b610503866107da565b61054b6040518060400160405280600b81526020016a556e6974656441746c617360a81b8152506040518060400160405280600381526020016215505560ea1b8152506107eb565b610561866b19d971e4fe8401e7400000006107fd565b83156105a757845460ff60401b19168555604051600181527fc7f505b2f371ae2175ee4913f4499e1f2633a7b5936321eed1cdaeb6115181d29060200160405180910390a15b505050505050565b6000806105ba610667565b6001600160a01b03948516600090815260019190910160209081526040808320959096168252939093525050205490565b600080610406610833565b6105fe610785565b6000610608610833565b80546001600160a01b0319166001600160a01b038416908117825590915061062e6103e1565b6001600160a01b03167f38d16b8cac22d99fc7c124b9cd0de2d3fa1faef420bfe791d8c362d765e2270060405160405180910390a35050565b7f52c63247e1f47db19d5ce0460030c497f067ca4cebf71ba98eeadabe20bace0090565b6106988383836001610857565b505050565b60006106a984846105af565b905060001981146106ea57818110156106db57828183604051637dc7a0d960e11b81526004016103b693929190610d0d565b6106ea84848484036000610857565b50505050565b6001600160a01b03831661071a576000604051634b637e8f60e11b81526004016103b69190610c8c565b6001600160a01b03821661074457600060405163ec442f0560e01b81526004016103b69190610c8c565b61069883838361093c565b6001600160a01b038216610779576000604051634b637e8f60e11b81526004016103b69190610c8c565b6103dd8260008361093c565b3361078e6103e1565b6001600160a01b031614610381573360405163118cdaa760e01b81526004016103b69190610c8c565b60006107c1610833565b80546001600160a01b031916815590506103dd82610a64565b6107e2610ad5565b61034181610b1e565b6107f3610ad5565b6103dd8282610b50565b6001600160a01b03821661082757600060405163ec442f0560e01b81526004016103b69190610c8c565b6103dd6000838361093c565b7f237e158222e3e6968b72b9db0d8043aacf074ad9f650f0d1606b4d82ee432c0090565b6000610861610667565b90506001600160a01b03851661088d57600060405163e602df0560e01b81526004016103b69190610c8c565b6001600160a01b0384166108b7576000604051634a1406b160e11b81526004016103b69190610c8c565b6001600160a01b0380861660009081526001830160209081526040808320938816835292905220839055811561093557836001600160a01b0316856001600160a01b03167f8c5be1e5ebec7d5bd14f71427d1e84f3dd0314c0f7b2291e5b200ac8c7c3b9258560405161092c91815260200190565b60405180910390a35b5050505050565b6000610946610667565b90506001600160a01b038416610975578181600201600082825461096a9190610d2e565b909155506109d49050565b6001600160a01b038416600090815260208290526040902054828110156109b55784818460405163391434e360e21b81526004016103b693929190610d0d565b6001600160a01b03851660009081526020839052604090209083900390555b6001600160a01b0383166109f2576002810180548390039055610a11565b6001600160a01b03831660009081526020829052604090208054830190555b826001600160a01b0316846001600160a01b03167fddf252ad1be2c89b69c2b068fc378daa952ba7f163c4a11628f55a4df523b3ef84604051610a5691815260200190565b60405180910390a350505050565b7f9016d09d72d40fdae2fd8ceac6b6234c7706214fd39c1cd1e609a0528c19930080546001600160a01b031981166001600160a01b03848116918217845560405192169182907f8be0079c531659141344cd1fd0a4f28419497f9722a3daafe3b4186f6b6457e090600090a3505050565b7ff0c57e16840df040f15088dc2f81fe391c3923bec73e23a9662efc9c229c6a0054600160401b900460ff1661038157604051631afcd79f60e31b815260040160405180910390fd5b610b26610ad5565b6001600160a01b0381166103bf576000604051631e4fbdf760e01b81526004016103b69190610c8c565b610b58610ad5565b6000610b62610667565b905060038101610b728482610dab565b50600481016106ea8382610dab565b600060208083528351808285015260005b81811015610bae57858101830151858201604001528201610b92565b506000604082860101526040601f19601f8301168501019250505092915050565b80356001600160a01b0381168114610be657600080fd5b919050565b60008060408385031215610bfe57600080fd5b610c0783610bcf565b946020939093013593505050565b600080600060608486031215610c2a57600080fd5b610c3384610bcf565b9250610c4160208501610bcf565b9150604084013590509250925092565b600060208284031215610c6357600080fd5b5035919050565b600060208284031215610c7c57600080fd5b610c8582610bcf565b9392505050565b6001600160a01b0391909116815260200190565b60008060408385031215610cb357600080fd5b610cbc83610bcf565b9150610cca60208401610bcf565b90509250929050565b600181811c90821680610ce757607f821691505b602082108103610d0757634e487b7160e01b600052602260045260246000fd5b50919050565b6001600160a01b039390931683526020830191909152604082015260600190565b808201808211156102f857634e487b7160e01b600052601160045260246000fd5b634e487b7160e01b600052604160045260246000fd5b601f82111561069857600081815260208120601f850160051c81016020861015610d8c5750805b601f850160051c820191505b818110156105a757828155600101610d98565b815167ffffffffffffffff811115610dc557610dc5610d4f565b610dd981610dd38454610cd3565b84610d65565b602080601f831160018114610e0e5760008415610df65750858301515b600019600386901b1c1916600185901b1785556105a7565b600085815260208120601f198616915b82811015610e3d57888601518255948401946001909101908401610e1e565b5085821015610e5b5787850151600019600388901b60f8161c191681555b5050505050600190811b0190555056fea2646970667358221220ad8e88795eb1878377f375db860058b5597811312987f82d269ee3ea6f02403664736f6c63430008140033",
        "nonce": "0x3",
        "chainId": "0x89"
      },
      "additionalContracts": [],
      "isFixedGasLimit": false
    },
    {
      "hash": "0x94623a8222636794d0e026e967cbeae21dd03de283d335e1eb8e3857b155c324",
      "transactionType": "CALL",
      "contractName": "ProxyAdmin",
      "contractAddress": "0xddfdd6ed54bc0d43936b28928c25f34848837dcb",
      "function": "upgradeAndCall(address,address,bytes)",
      "arguments": [
        "0x8b86Ff51C70c67D06CD4Cf41b4d0B4a4bBC8D842",
        "0x8b06C35631F18CC3452Cf4a649CE5E007b142e4F",
        "0x"
      ],
      "transaction": {
        "from": "0x9304b52d0d68cce3fdacd14b81e7145dea59d42c",
        "to": "0xddfdd6ed54bc0d43936b28928c25f34848837dcb",
        "gas": "0xd83c",
        "value": "0x0",
        "input": "0x9623609d0000000000000000000000008b86ff51c70c67d06cd4cf41b4d0b4a4bbc8d8420000000000000000000000008b06c35631f18cc3452cf4a649ce5e007b142e4f00000000000000000000000000000000000000000000000000000000000000600000000000000000000000000000000000000000000000000000000000000000",
        "nonce": "0x4",
        "chainId": "0x89"
      },
      "additionalContracts": [],
      "isFixedGasLimit": false
    }
  ],
  "receipts": [
    {
      "status": "0x1",
      "cumulativeGasUsed": "0xd4b7c2",
      "logs": [
        {
          "address": "0x8b06c35631f18cc3452cf4a649ce5e007b142e4f",
          "topics": [
            "0xc7f505b2f371ae2175ee4913f4499e1f2633a7b5936321eed1cdaeb6115181d2"
          ],
          "data": "0x000000000000000000000000000000000000000000000000ffffffffffffffff",
          "blockHash": "0x624e16e1c04152ee141bbdc348452de77eea05ba6f8afac49f10b72bf9cbe753",
          "blockNumber": "0x3dd3fb6",
          "transactionHash": "0x13596a1cd9d4055ad61619fb6a7a6235899ad8f7f91720d0cc123d1b31d9fe05",
          "transactionIndex": "0x3b",
          "logIndex": "0x1c8",
          "removed": false
        },
        {
          "address": "0x0000000000000000000000000000000000001010",
          "topics": [
            "0x4dfe1bbbcf077ddc3e01291eea2d5c70c2b422b415d95645b9adcfd678cb1d63",
            "0x0000000000000000000000000000000000000000000000000000000000001010",
            "0x0000000000000000000000009304b52d0d68cce3fdacd14b81e7145dea59d42c",
            "0x0000000000000000000000007c7379531b2aee82e4ca06d4175d13b9cbeafd49"
          ],
          "data": "0x000000000000000000000000000000000000000000000000006c52d9bf40de400000000000000000000000000000000000000000000000000de0b6b3a7673450000000000000000000000000000000000000000000034fd711c654b9e84927870000000000000000000000000000000000000000000000000d7463d9e8265610000000000000000000000000000000000000000000034fd71232a793a78a05c7",
          "blockHash": "0x624e16e1c04152ee141bbdc348452de77eea05ba6f8afac49f10b72bf9cbe753",
          "blockNumber": "0x3dd3fb6",
          "transactionHash": "0x13596a1cd9d4055ad61619fb6a7a6235899ad8f7f91720d0cc123d1b31d9fe05",
          "transactionIndex": "0x3b",
          "logIndex": "0x1c9",
          "removed": false
        }
      ],
      "logsBloom": "0x00000000000000000000000000000000000000000000000000000000000000400000000000000000000000000000000000008000000000000000000000000000000000000000000010000000000000800000000000400000000100000000000000000000000000000000000000000000000000000000000080000101000020000008000000000000000800000000000000000000000080000000000000000000200000000000000000000000000000000000000000000000000000000000004000000000000000000001000000000000000000000004000000100000000000000000000000000000000000000000000000000000000000010000000000100000",
      "type": "0x2",
      "transactionHash": "0x13596a1cd9d4055ad61619fb6a7a6235899ad8f7f91720d0cc123d1b31d9fe05",
      "transactionIndex": "0x3b",
      "blockHash": "0x624e16e1c04152ee141bbdc348452de77eea05ba6f8afac49f10b72bf9cbe753",
      "blockNumber": "0x3dd3fb6",
      "gasUsed": "0xd8f7e",
      "effectiveGasPrice": "0x90cf9f5f5",
      "blobGasUsed": "0x0",
      "from": "0x9304b52d0d68cce3fdacd14b81e7145dea59d42c",
      "to": null,
      "contractAddress": "0x8b06c35631f18cc3452cf4a649ce5e007b142e4f"
    },
    {
      "status": "0x1",
      "cumulativeGasUsed": "0xd54b9d",
      "logs": [
        {
          "address": "0x8b86ff51c70c67d06cd4cf41b4d0b4a4bbc8d842",
          "topics": [
            "0xbc7cd75a20ee27fd9adebab32041f755214dbc6bffa90cc0225b39da2e5c2d3b",
            "0x0000000000000000000000008b06c35631f18cc3452cf4a649ce5e007b142e4f"
          ],
          "data": "0x",
          "blockHash": "0x624e16e1c04152ee141bbdc348452de77eea05ba6f8afac49f10b72bf9cbe753",
          "blockNumber": "0x3dd3fb6",
          "transactionHash": "0x94623a8222636794d0e026e967cbeae21dd03de283d335e1eb8e3857b155c324",
          "transactionIndex": "0x3c",
          "logIndex": "0x1ca",
          "removed": false
        },
        {
          "address": "0x0000000000000000000000000000000000001010",
          "topics": [
            "0x4dfe1bbbcf077ddc3e01291eea2d5c70c2b422b415d95645b9adcfd678cb1d63",
            "0x0000000000000000000000000000000000000000000000000000000000001010",
            "0x0000000000000000000000009304b52d0d68cce3fdacd14b81e7145dea59d42c",
            "0x0000000000000000000000007c7379531b2aee82e4ca06d4175d13b9cbeafd49"
          ],
          "data": "0x00000000000000000000000000000000000000000000000000049d18037ca7a00000000000000000000000000000000000000000000000000d65fb4e268b4aba000000000000000000000000000000000000000000034fd71232a793a78a05c70000000000000000000000000000000000000000000000000d615e36230ea31a000000000000000000000000000000000000000000034fd7123744abab06ad67",
          "blockHash": "0x624e16e1c04152ee141bbdc348452de77eea05ba6f8afac49f10b72bf9cbe753",
          "blockNumber": "0x3dd3fb6",
          "transactionHash": "0x94623a8222636794d0e026e967cbeae21dd03de283d335e1eb8e3857b155c324",
          "transactionIndex": "0x3c",
          "logIndex": "0x1cb",
          "removed": false
        }
      ],
      "logsBloom": "0x00020000000000000000000000000000400000000000000000000000000000400000000000000000000000000000000000088000000000000000000000000000000000000000000010000000000002800000000000400000000100000000000000000000000000000000000000000000000000000000000080000000000020000000000000000000000000000000000000000000000001004000000000000000200000000000000000000000000000000000000000000000000000000000004000000020000000000001000000000000000000000000000000100000000000000000000000000080000000000000000000001000000000010000000000100000",
      "type": "0x2",
      "transactionHash": "0x94623a8222636794d0e026e967cbeae21dd03de283d335e1eb8e3857b155c324",
      "transactionIndex": "0x3c",
      "blockHash": "0x624e16e1c04152ee141bbdc348452de77eea05ba6f8afac49f10b72bf9cbe753",
      "blockNumber": "0x3dd3fb6",
      "gasUsed": "0x93db",
      "effectiveGasPrice": "0x90cf9f5f5",
      "blobGasUsed": "0x0",
      "from": "0x9304b52d0d68cce3fdacd14b81e7145dea59d42c",
      "to": "0xddfdd6ed54bc0d43936b28928c25f34848837dcb",
      "contractAddress": null
    }
  ],
  "libraries": [],
  "pending": [],
  "returns": {
    "0": {
      "internal_type": "address",
      "value": "0x8b86Ff51C70c67D06CD4Cf41b4d0B4a4bBC8D842"
    }
  },
  "timestamp": 1732793698,
  "chain": 137,
  "commit": "4af5ca6"
}